{
  "abi": [
    {
      "inputs": [],
      "stateMutability": "nonpayable",
      "type": "constructor"
    },
    {
      "anonymous": false,
      "inputs": [
        {
          "indexed": true,
          "internalType": "address",
          "name": "patient",
          "type": "address"
        },
        {
          "indexed": false,
          "internalType": "address",
          "name": "viewer",
          "type": "address"
        }
      ],
      "name": "ApproveViewData",
      "type": "event"
    },
    {
      "anonymous": false,
      "inputs": [
        {
          "indexed": true,
          "internalType": "address",
          "name": "patient",
          "type": "address"
        },
        {
          "indexed": false,
          "internalType": "address",
          "name": "viewer",
          "type": "address"
        }
      ],
      "name": "DisapproveViewData",
      "type": "event"
    },
    {
      "anonymous": false,
      "inputs": [
        {
          "indexed": true,
          "internalType": "address",
          "name": "doctor",
          "type": "address"
        },
        {
          "indexed": false,
          "internalType": "uint256",
          "name": "timestamp",
          "type": "uint256"
        }
      ],
      "name": "DoctorRegistered",
      "type": "event"
    },
    {
      "anonymous": false,
      "inputs": [
        {
          "indexed": true,
          "internalType": "address",
          "name": "doctor",
          "type": "address"
        },
        {
          "indexed": false,
          "internalType": "uint256",
          "name": "timestamp",
          "type": "uint256"
        }
      ],
      "name": "DoctorRemoved",
      "type": "event"
    },
    {
      "anonymous": false,
      "inputs": [
        {
          "indexed": true,
          "internalType": "address",
          "name": "from",
          "type": "address"
        },
        {
          "indexed": false,
          "internalType": "address",
          "name": "to",
          "type": "address"
        },
        {
          "indexed": false,
          "internalType": "uint256",
          "name": "value",
          "type": "uint256"
        }
      ],
      "name": "Paid",
      "type": "event"
    },
    {
      "anonymous": false,
      "inputs": [
        {
          "indexed": true,
          "internalType": "address",
          "name": "patient",
          "type": "address"
        },
        {
          "indexed": false,
          "internalType": "string",
          "name": "name",
          "type": "string"
        },
        {
          "indexed": false,
          "internalType": "enum Enum.BloodType",
          "name": "bloodType",
          "type": "uint8"
        },
        {
          "indexed": false,
          "internalType": "uint256",
          "name": "lastUpdated",
          "type": "uint256"
        }
      ],
      "name": "PatientRegistered",
      "type": "event"
    },
    {
      "anonymous": false,
      "inputs": [
        {
          "indexed": true,
          "internalType": "address",
          "name": "patient",
          "type": "address"
        }
      ],
      "name": "PatientRemoved",
      "type": "event"
    },
    {
      "anonymous": false,
      "inputs": [
        {
          "indexed": true,
          "internalType": "address",
          "name": "patient",
          "type": "address"
        },
        {
          "indexed": false,
          "internalType": "string",
          "name": "name",
          "type": "string"
        },
        {
          "indexed": false,
          "internalType": "enum Enum.BloodType",
          "name": "bloodType",
          "type": "uint8"
        },
        {
          "indexed": false,
          "internalType": "uint256",
          "name": "lastUpdated",
          "type": "uint256"
        }
      ],
      "name": "PatientUpdated",
      "type": "event"
    },
    {
      "anonymous": false,
      "inputs": [
        {
          "indexed": true,
          "internalType": "bytes32",
          "name": "role",
          "type": "bytes32"
        },
        {
          "indexed": true,
          "internalType": "bytes32",
          "name": "previousAdminRole",
          "type": "bytes32"
        },
        {
          "indexed": true,
          "internalType": "bytes32",
          "name": "newAdminRole",
          "type": "bytes32"
        }
      ],
      "name": "RoleAdminChanged",
      "type": "event"
    },
    {
      "anonymous": false,
      "inputs": [
        {
          "indexed": true,
          "internalType": "bytes32",
          "name": "role",
          "type": "bytes32"
        },
        {
          "indexed": true,
          "internalType": "address",
          "name": "account",
          "type": "address"
        },
        {
          "indexed": true,
          "internalType": "address",
          "name": "sender",
          "type": "address"
        }
      ],
      "name": "RoleGranted",
      "type": "event"
    },
    {
      "anonymous": false,
      "inputs": [
        {
          "indexed": true,
          "internalType": "bytes32",
          "name": "role",
          "type": "bytes32"
        },
        {
          "indexed": true,
          "internalType": "address",
          "name": "account",
          "type": "address"
        },
        {
          "indexed": true,
          "internalType": "address",
          "name": "sender",
          "type": "address"
        }
      ],
      "name": "RoleRevoked",
      "type": "event"
    },
    {
      "inputs": [],
      "name": "DEFAULT_ADMIN_ROLE",
      "outputs": [
        {
          "internalType": "bytes32",
          "name": "",
          "type": "bytes32"
        }
      ],
      "stateMutability": "view",
      "type": "function"
    },
    {
      "inputs": [
        {
          "internalType": "address",
          "name": "_patient",
          "type": "address"
        },
        {
          "internalType": "address",
          "name": "_viewer",
          "type": "address"
        }
      ],
      "name": "approveViewData",
      "outputs": [],
      "stateMutability": "nonpayable",
      "type": "function"
    },
    {
      "inputs": [
        {
          "internalType": "address",
          "name": "_patient",
          "type": "address"
        },
        {
          "internalType": "address",
          "name": "_viewer",
          "type": "address"
        }
      ],
      "name": "disapproveViewData",
      "outputs": [],
      "stateMutability": "nonpayable",
      "type": "function"
    },
    {
      "inputs": [
        {
          "internalType": "address",
          "name": "_patient",
          "type": "address"
        }
      ],
      "name": "getApproved",
      "outputs": [
        {
          "internalType": "bool",
          "name": "",
          "type": "bool"
        }
      ],
      "stateMutability": "view",
      "type": "function"
    },
    {
      "inputs": [
        {
          "internalType": "address",
          "name": "_patient",
          "type": "address"
        }
      ],
      "name": "getPatientData",
      "outputs": [
        {
          "components": [
            {
              "internalType": "string",
              "name": "name",
              "type": "string"
            },
            {
              "internalType": "enum Enum.BloodType",
              "name": "bloodType",
              "type": "uint8"
            },
            {
              "internalType": "uint256",
              "name": "lastUpdated",
              "type": "uint256"
            }
          ],
          "internalType": "struct MedicalDatabase.Patient",
          "name": "",
          "type": "tuple"
        }
      ],
      "stateMutability": "view",
      "type": "function"
    },
    {
      "inputs": [
        {
          "internalType": "bytes32",
          "name": "role",
          "type": "bytes32"
        }
      ],
      "name": "getRoleAdmin",
      "outputs": [
        {
          "internalType": "bytes32",
          "name": "",
          "type": "bytes32"
        }
      ],
      "stateMutability": "view",
      "type": "function"
    },
    {
      "inputs": [
        {
          "internalType": "bytes32",
          "name": "role",
          "type": "bytes32"
        },
        {
          "internalType": "address",
          "name": "account",
          "type": "address"
        }
      ],
      "name": "grantRole",
      "outputs": [],
      "stateMutability": "nonpayable",
      "type": "function"
    },
    {
      "inputs": [
        {
          "internalType": "bytes32",
          "name": "role",
          "type": "bytes32"
        },
        {
          "internalType": "address",
          "name": "account",
          "type": "address"
        }
      ],
      "name": "hasRole",
      "outputs": [
        {
          "internalType": "bool",
          "name": "",
          "type": "bool"
        }
      ],
      "stateMutability": "view",
      "type": "function"
    },
    {
      "inputs": [
        {
          "internalType": "address",
          "name": "_patient",
          "type": "address"
        },
        {
          "internalType": "address",
          "name": "_viewer",
          "type": "address"
        }
      ],
      "name": "isApproved",
      "outputs": [
        {
          "internalType": "bool",
          "name": "",
          "type": "bool"
        }
      ],
      "stateMutability": "view",
      "type": "function"
    },
    {
      "inputs": [
        {
          "internalType": "address",
          "name": "_doctor",
          "type": "address"
        }
      ],
      "name": "isDoctor",
      "outputs": [
        {
          "internalType": "bool",
          "name": "",
          "type": "bool"
        }
      ],
      "stateMutability": "view",
      "type": "function"
    },
    {
      "inputs": [
        {
          "internalType": "address",
          "name": "_to",
          "type": "address"
        }
      ],
      "name": "pay",
      "outputs": [],
      "stateMutability": "payable",
      "type": "function"
    },
    {
      "inputs": [
        {
          "internalType": "address",
          "name": "_doctor",
          "type": "address"
        }
      ],
      "name": "registerDoctor",
      "outputs": [],
      "stateMutability": "nonpayable",
      "type": "function"
    },
    {
      "inputs": [
        {
          "internalType": "address",
          "name": "_patient",
          "type": "address"
        },
        {
          "internalType": "string",
          "name": "_name",
          "type": "string"
        },
        {
          "internalType": "enum Enum.BloodType",
          "name": "_bloodType",
          "type": "uint8"
        }
      ],
      "name": "registerPatient",
      "outputs": [],
      "stateMutability": "nonpayable",
      "type": "function"
    },
    {
      "inputs": [
        {
          "internalType": "address",
          "name": "_doctor",
          "type": "address"
        }
      ],
      "name": "removeDoctor",
      "outputs": [],
      "stateMutability": "nonpayable",
      "type": "function"
    },
    {
      "inputs": [
        {
          "internalType": "address",
          "name": "_patient",
          "type": "address"
        }
      ],
      "name": "removePatient",
      "outputs": [],
      "stateMutability": "nonpayable",
      "type": "function"
    },
    {
      "inputs": [
        {
          "internalType": "bytes32",
          "name": "role",
          "type": "bytes32"
        },
        {
          "internalType": "address",
          "name": "account",
          "type": "address"
        }
      ],
      "name": "renounceRole",
      "outputs": [],
      "stateMutability": "nonpayable",
      "type": "function"
    },
    {
      "inputs": [
        {
          "internalType": "bytes32",
          "name": "role",
          "type": "bytes32"
        },
        {
          "internalType": "address",
          "name": "account",
          "type": "address"
        }
      ],
      "name": "revokeRole",
      "outputs": [],
      "stateMutability": "nonpayable",
      "type": "function"
    },
    {
      "inputs": [
        {
          "internalType": "bytes4",
          "name": "interfaceId",
          "type": "bytes4"
        }
      ],
      "name": "supportsInterface",
      "outputs": [
        {
          "internalType": "bool",
          "name": "",
          "type": "bool"
        }
      ],
      "stateMutability": "view",
      "type": "function"
    },
    {
      "inputs": [
        {
          "internalType": "address",
          "name": "_patient",
          "type": "address"
        },
        {
          "internalType": "string",
          "name": "_name",
          "type": "string"
        },
        {
          "internalType": "enum Enum.BloodType",
          "name": "_bloodType",
          "type": "uint8"
        }
      ],
      "name": "updatePatient",
      "outputs": [],
      "stateMutability": "nonpayable",
      "type": "function"
    }
  ],
  "bytecode": {
    "object": "0x608060405234801561001057600080fd5b506116cd806100206000396000f3fe6080604052600436106101145760003560e01c806391d14854116100a0578063c79c7b1611610064578063c79c7b1614610303578063d547741f14610323578063d649937614610343578063e1c0161814610363578063fa8583741461038357600080fd5b806391d148541461026e57806398fc90e91461028e578063996440c6146102ae578063a217fddf146102ce578063a389783e146102e357600080fd5b806336568abe116100e757806336568abe146101c15780633dddc9ea146101e157806348e8185214610201578063699ca9981461022e5780637d0d62571461024e57600080fd5b806301ffc9a7146101195780630c11dedd1461014e578063248a9ca3146101635780632f2ff15d146101a1575b600080fd5b34801561012557600080fd5b5061013961013436600461108a565b6103a3565b60405190151581526020015b60405180910390f35b61016161015c3660046110d0565b6103da565b005b34801561016f57600080fd5b5061019361017e3660046110eb565b60009081526020819052604090206001015490565b604051908152602001610145565b3480156101ad57600080fd5b506101616101bc366004611104565b610456565b3480156101cd57600080fd5b506101616101dc366004611104565b610480565b3480156101ed57600080fd5b506101396101fc3660046110d0565b610503565b34801561020d57600080fd5b5061022161021c3660046110d0565b61050f565b60405161014591906111c4565b34801561023a57600080fd5b506101616102493660046110d0565b6106ed565b34801561025a57600080fd5b506101616102693660046110d0565b610768565b34801561027a57600080fd5b50610139610289366004611104565b6107fd565b34801561029a57600080fd5b506101616102a93660046110d0565b610826565b3480156102ba57600080fd5b506101396102c93660046110d0565b610892565b3480156102da57600080fd5b50610193600081565b3480156102ef57600080fd5b506101396102fe366004611209565b61089e565b34801561030f57600080fd5b5061016161031e366004611258565b6108c1565b34801561032f57600080fd5b5061016161033e366004611104565b610a55565b34801561034f57600080fd5b5061016161035e366004611258565b610a7a565b34801561036f57600080fd5b5061016161037e366004611209565b610bf7565b34801561038f57600080fd5b5061016161039e366004611209565b610c80565b60006001600160e01b03198216637965db0b60e01b14806103d457506301ffc9a760e01b6001600160e01b03198316145b92915050565b6040516001600160a01b038216903480156108fc02916000818181858888f1935050505015801561040f573d6000803e3d6000fd5b50604080516001600160a01b038316815234602082015233917f9def4e2802183d68ce90a6a226a2962b59298616c27165f12c4fbc5c84cdd778910160405180910390a250565b60008281526020819052604090206001015461047181610cff565b61047b8383610d0c565b505050565b6001600160a01b03811633146104f55760405162461bcd60e51b815260206004820152602f60248201527f416363657373436f6e74726f6c3a2063616e206f6e6c792072656e6f756e636560448201526e103937b632b9903337b91039b2b63360891b60648201526084015b60405180910390fd5b6104ff8282610d90565b5050565b60006103d4823361089e565b60408051606080820183528152600060208083018290528284018290526001600160a01b0385168252600190529190912060020154829061058b5760405162461bcd60e51b81526020600482015260166024820152751c185d1a595b9d08191bd95cc81b9bdd08195e1a5cdd60521b60448201526064016104ec565b82336105978282610df5565b6105f25760405162461bcd60e51b815260206004820152602660248201527f6973206e6f7420616e20617574686f72697a6564207573657220746f2076696560448201526577206461746160d01b60648201526084016104ec565b6001600160a01b038516600090815260016020526040908190208151606081019092528054829082906106249061132a565b80601f01602080910402602001604051908101604052809291908181526020018280546106509061132a565b801561069d5780601f106106725761010080835404028352916020019161069d565b820191906000526020600020905b81548152906001019060200180831161068057829003601f168201915b5050509183525050600182015460209091019060ff1660048111156106c4576106c461118c565b60048111156106d5576106d561118c565b81526020016002820154815250509350505050919050565b80336001600160a01b038216146107165760405162461bcd60e51b81526004016104ec90611364565b610721600083610d0c565b816001600160a01b03167fa10a7d4aed281c75833a79b4257a8fcc8c0cf12cdfa1c276fa6f849a53c60fb94260405161075c91815260200190565b60405180910390a25050565b3361077281610892565b61078e5760405162461bcd60e51b81526004016104ec9061139b565b6001600160a01b0382166000908152600160205260408120906107b1828261103c565b5060018101805460ff19169055600060029091018190556040516001600160a01b038416917f053a4badf166f01c4b02f6bcb71d2d67734470d0866282e291e73001aa25c76991a25050565b6000918252602082815260408084206001600160a01b0393909316845291905290205460ff1690565b3361083081610892565b61084c5760405162461bcd60e51b81526004016104ec9061139b565b610857600083610d90565b816001600160a01b03167fa71431043205949af83c925167531f16cee0dd1ccbb22460126afb0e7c12c15e4260405161075c91815260200190565b60006103d481836107fd565b60006001600160601b0319606084901b166108b981846107fd565b949350505050565b826108e6816001600160a01b0316600090815260016020526040902060020154151590565b61092b5760405162461bcd60e51b81526020600482015260166024820152751c185d1a595b9d08191bd95cc81b9bdd08195e1a5cdd60521b60448201526064016104ec565b3361093581610892565b6109515760405162461bcd60e51b81526004016104ec9061139b565b843361095d828261089e565b6109a95760405162461bcd60e51b815260206004820181905260248201527f6973206e6f7420617070726f76656420746f207669657720746865206461746160448201526064016104ec565b6001600160a01b0387166000908152600160205260409020806109cc8882611410565b5060018082018054889260ff19909116908360048111156109ef576109ef61118c565b0217905550426002820181905560018201546040516001600160a01b038b16927f10c994c3af15bd839be7f5fa94479449107c300465b697e0f0f5207288faba4f92610a4392869260ff90921691906114d0565b60405180910390a25050505050505050565b600082815260208190526040902060010154610a7081610cff565b61047b8383610d90565b82336001600160a01b03821614610aa35760405162461bcd60e51b81526004016104ec90611364565b6001600160a01b03841660009081526001602052604090206002015415610b0c5760405162461bcd60e51b815260206004820152601d60248201527f70617469656e7420697320616c7265616479207265676973746572656400000060448201526064016104ec565b60006040518060600160405280858152602001846004811115610b3157610b3161118c565b8152426020918201526001600160a01b0387166000908152600190915260409020815191925082918190610b659082611410565b50602082015160018083018054909160ff1990911690836004811115610b8d57610b8d61118c565b021790555060408201518160020155905050846001600160a01b03167fd852f2c27b2ba49c49adc1d0162d8cf893b7271ecc1cedd07408a24f46152023826000015183602001518460400151604051610be893929190611573565b60405180910390a25050505050565b81336001600160a01b03821614610c205760405162461bcd60e51b81526004016104ec90611364565b6001600160601b0319606084901b16610c398184610d0c565b6040516001600160a01b0384811682528516907f9bede35f85ff0426cf3132bd3e6b809a22d111fd28c72b4b601b8322a36c62a4906020015b60405180910390a250505050565b81336001600160a01b03821614610ca95760405162461bcd60e51b81526004016104ec90611364565b6001600160601b0319606084901b16610cc28184610d90565b6040516001600160a01b0384811682528516907f7aaaf08c8f3f46fee1a7ea594f16e3ce786d53cf3ff2cd14e505d385eab62e7990602001610c72565b610d098133610e35565b50565b610d1682826107fd565b6104ff576000828152602081815260408083206001600160a01b03851684529091529020805460ff19166001179055610d4c3390565b6001600160a01b0316816001600160a01b0316837f2f8788117e7eff1d82e926ec794901d17c78024a50270940304540a733656f0d60405160405180910390a45050565b610d9a82826107fd565b156104ff576000828152602081815260408083206001600160a01b0385168085529252808320805460ff1916905551339285917ff6391f5c32d9c69d2a47ea670b442974b53935d1edc7fd64eb21e047a839171b9190a45050565b6000816001600160a01b0316836001600160a01b03161480610e2e5750610e1c838361089e565b8015610e2e5750610e2e6000836107fd565b9392505050565b610e3f82826107fd565b6104ff57610e4c81610e8e565b610e57836020610ea0565b604051602001610e68929190611595565b60408051601f198184030181529082905262461bcd60e51b82526104ec9160040161160a565b60606103d46001600160a01b03831660145b60606000610eaf836002611633565b610eba906002611652565b67ffffffffffffffff811115610ed257610ed2611233565b6040519080825280601f01601f191660200182016040528015610efc576020820181803683370190505b509050600360fc1b81600081518110610f1757610f1761166a565b60200101906001600160f81b031916908160001a905350600f60fb1b81600181518110610f4657610f4661166a565b60200101906001600160f81b031916908160001a9053506000610f6a846002611633565b610f75906001611652565b90505b6001811115610fed576f181899199a1a9b1b9c1cb0b131b232b360811b85600f1660108110610fa957610fa961166a565b1a60f81b828281518110610fbf57610fbf61166a565b60200101906001600160f81b031916908160001a90535060049490941c93610fe681611680565b9050610f78565b508315610e2e5760405162461bcd60e51b815260206004820181905260248201527f537472696e67733a20686578206c656e67746820696e73756666696369656e7460448201526064016104ec565b5080546110489061132a565b6000825580601f10611058575050565b601f016020900490600052602060002090810190610d0991905b808211156110865760008155600101611072565b5090565b60006020828403121561109c57600080fd5b81356001600160e01b031981168114610e2e57600080fd5b80356001600160a01b03811681146110cb57600080fd5b919050565b6000602082840312156110e257600080fd5b610e2e826110b4565b6000602082840312156110fd57600080fd5b5035919050565b6000806040838503121561111757600080fd5b82359150611127602084016110b4565b90509250929050565b60005b8381101561114b578181015183820152602001611133565b8381111561115a576000848401525b50505050565b60008151808452611178816020860160208601611130565b601f01601f19169290920160200192915050565b634e487b7160e01b600052602160045260246000fd5b600581106111c057634e487b7160e01b600052602160045260246000fd5b9052565b6020815260008251606060208401526111e06080840182611160565b905060208401516111f460408501826111a2565b50604084015160608401528091505092915050565b6000806040838503121561121c57600080fd5b611225836110b4565b9150611127602084016110b4565b634e487b7160e01b600052604160045260246000fd5b8035600581106110cb57600080fd5b60008060006060848603121561126d57600080fd5b611276846110b4565b9250602084013567ffffffffffffffff8082111561129357600080fd5b818601915086601f8301126112a757600080fd5b8135818111156112b9576112b9611233565b604051601f8201601f19908116603f011681019083821181831017156112e1576112e1611233565b816040528281528960208487010111156112fa57600080fd5b82602086016020830137600060208483010152809650505050505061132160408501611249565b90509250925092565b600181811c9082168061133e57607f821691505b60208210810361135e57634e487b7160e01b600052602260045260246000fd5b50919050565b6020808252601f908201527f7468652061646472657373206973206e6f74207468652073656e646572277300604082015260600190565b6020808252600d908201526c34b9903737ba103237b1ba37b960991b604082015260600190565b601f82111561047b57600081815260208120601f850160051c810160208610156113e95750805b601f850160051c820191505b81811015611408578281556001016113f5565b505050505050565b815167ffffffffffffffff81111561142a5761142a611233565b61143e81611438845461132a565b846113c2565b602080601f831160018114611473576000841561145b5750858301515b600019600386901b1c1916600185901b178555611408565b600085815260208120601f198616915b828110156114a257888601518255948401946001909101908401611483565b50858210156114c05787850151600019600388901b60f8161c191681555b5050505050600190811b01905550565b6060815260008085546114e28161132a565b8060608601526080600180841660008114611504576001811461151e5761154f565b60ff1985168884015283151560051b88018301955061154f565b8a60005260208060002060005b868110156115465781548b820187015290840190820161152b565b8a018501975050505b50505050508091505061156560208301856111a2565b826040830152949350505050565b6060815260006115866060830186611160565b905061156560208301856111a2565b7f416363657373436f6e74726f6c3a206163636f756e74200000000000000000008152600083516115cd816017850160208801611130565b7001034b99036b4b9b9b4b733903937b6329607d1b60179184019182015283516115fe816028840160208801611130565b01602801949350505050565b602081526000610e2e6020830184611160565b634e487b7160e01b600052601160045260246000fd5b600081600019048311821515161561164d5761164d61161d565b500290565b600082198211156116655761166561161d565b500190565b634e487b7160e01b600052603260045260246000fd5b60008161168f5761168f61161d565b50600019019056fea2646970667358221220bfff32ddcea2142769ac4e09a4d956be35fc907e6fe728a43d53bffff0a1cd6d64736f6c634300080f0033",
    "linkReferences": {}
  },
  "methodIdentifiers": {
    "DEFAULT_ADMIN_ROLE()": "a217fddf",
    "approveViewData(address,address)": "e1c01618",
    "disapproveViewData(address,address)": "fa858374",
    "getApproved(address)": "3dddc9ea",
    "getPatientData(address)": "48e81852",
    "getRoleAdmin(bytes32)": "248a9ca3",
    "grantRole(bytes32,address)": "2f2ff15d",
    "hasRole(bytes32,address)": "91d14854",
    "isApproved(address,address)": "a389783e",
    "isDoctor(address)": "996440c6",
    "pay(address)": "0c11dedd",
    "registerDoctor(address)": "699ca998",
    "registerPatient(address,string,uint8)": "d6499376",
    "removeDoctor(address)": "98fc90e9",
    "removePatient(address)": "7d0d6257",
    "renounceRole(bytes32,address)": "36568abe",
    "revokeRole(bytes32,address)": "d547741f",
    "supportsInterface(bytes4)": "01ffc9a7",
    "updatePatient(address,string,uint8)": "c79c7b16"
  },
  "id": 26
}