{
  "abi": [
    {
      "inputs": [],
      "stateMutability": "nonpayable",
      "type": "constructor"
    },
    {
      "anonymous": false,
      "inputs": [
        {
          "indexed": true,
          "internalType": "address",
          "name": "patient",
          "type": "address"
        },
        {
          "indexed": false,
          "internalType": "address",
          "name": "viewer",
          "type": "address"
        }
      ],
      "name": "ApproveViewData",
      "type": "event"
    },
    {
      "anonymous": false,
      "inputs": [
        {
          "indexed": true,
          "internalType": "address",
          "name": "patient",
          "type": "address"
        },
        {
          "indexed": false,
          "internalType": "address",
          "name": "viewer",
          "type": "address"
        }
      ],
      "name": "DisapproveViewData",
      "type": "event"
    },
    {
      "anonymous": false,
      "inputs": [
        {
          "indexed": true,
          "internalType": "address",
          "name": "doctor",
          "type": "address"
        },
        {
          "indexed": false,
          "internalType": "uint256",
          "name": "timestamp",
          "type": "uint256"
        }
      ],
      "name": "DoctorRegistered",
      "type": "event"
    },
    {
      "anonymous": false,
      "inputs": [
        {
          "indexed": true,
          "internalType": "address",
          "name": "doctor",
          "type": "address"
        },
        {
          "indexed": false,
          "internalType": "uint256",
          "name": "timestamp",
          "type": "uint256"
        }
      ],
      "name": "DoctorRemoved",
      "type": "event"
    },
    {
      "anonymous": false,
      "inputs": [
        {
          "indexed": true,
          "internalType": "address",
          "name": "from",
          "type": "address"
        },
        {
          "indexed": false,
          "internalType": "address",
          "name": "to",
          "type": "address"
        },
        {
          "indexed": false,
          "internalType": "uint256",
          "name": "value",
          "type": "uint256"
        }
      ],
      "name": "Paid",
      "type": "event"
    },
    {
      "anonymous": false,
      "inputs": [
        {
          "indexed": true,
          "internalType": "address",
          "name": "patient",
          "type": "address"
        },
        {
          "indexed": true,
          "internalType": "string",
          "name": "name",
          "type": "string"
        },
        {
          "indexed": false,
          "internalType": "enum Enum.BloodType",
          "name": "bloodType",
          "type": "uint8"
        },
        {
          "indexed": false,
          "internalType": "uint256",
          "name": "lastUpdated",
          "type": "uint256"
        }
      ],
      "name": "PatientRegistered",
      "type": "event"
    },
    {
      "anonymous": false,
      "inputs": [
        {
          "indexed": true,
          "internalType": "address",
          "name": "patient",
          "type": "address"
        },
        {
          "indexed": true,
          "internalType": "string",
          "name": "name",
          "type": "string"
        },
        {
          "indexed": false,
          "internalType": "enum Enum.BloodType",
          "name": "bloodType",
          "type": "uint8"
        },
        {
          "indexed": false,
          "internalType": "uint256",
          "name": "lastUpdated",
          "type": "uint256"
        }
      ],
      "name": "PatientUpdated",
      "type": "event"
    },
    {
      "anonymous": false,
      "inputs": [
        {
          "indexed": true,
          "internalType": "bytes32",
          "name": "role",
          "type": "bytes32"
        },
        {
          "indexed": true,
          "internalType": "bytes32",
          "name": "previousAdminRole",
          "type": "bytes32"
        },
        {
          "indexed": true,
          "internalType": "bytes32",
          "name": "newAdminRole",
          "type": "bytes32"
        }
      ],
      "name": "RoleAdminChanged",
      "type": "event"
    },
    {
      "anonymous": false,
      "inputs": [
        {
          "indexed": true,
          "internalType": "bytes32",
          "name": "role",
          "type": "bytes32"
        },
        {
          "indexed": true,
          "internalType": "address",
          "name": "account",
          "type": "address"
        },
        {
          "indexed": true,
          "internalType": "address",
          "name": "sender",
          "type": "address"
        }
      ],
      "name": "RoleGranted",
      "type": "event"
    },
    {
      "anonymous": false,
      "inputs": [
        {
          "indexed": true,
          "internalType": "bytes32",
          "name": "role",
          "type": "bytes32"
        },
        {
          "indexed": true,
          "internalType": "address",
          "name": "account",
          "type": "address"
        },
        {
          "indexed": true,
          "internalType": "address",
          "name": "sender",
          "type": "address"
        }
      ],
      "name": "RoleRevoked",
      "type": "event"
    },
    {
      "inputs": [],
      "name": "DEFAULT_ADMIN_ROLE",
      "outputs": [
        {
          "internalType": "bytes32",
          "name": "",
          "type": "bytes32"
        }
      ],
      "stateMutability": "view",
      "type": "function"
    },
    {
      "inputs": [
        {
          "internalType": "address",
          "name": "_patient",
          "type": "address"
        },
        {
          "internalType": "address",
          "name": "_viewer",
          "type": "address"
        }
      ],
      "name": "approveViewData",
      "outputs": [],
      "stateMutability": "nonpayable",
      "type": "function"
    },
    {
      "inputs": [
        {
          "internalType": "address",
          "name": "_patient",
          "type": "address"
        },
        {
          "internalType": "address",
          "name": "_viewer",
          "type": "address"
        }
      ],
      "name": "disapproveViewData",
      "outputs": [],
      "stateMutability": "nonpayable",
      "type": "function"
    },
    {
      "inputs": [
        {
          "internalType": "address",
          "name": "_patient",
          "type": "address"
        }
      ],
      "name": "getApproved",
      "outputs": [
        {
          "internalType": "bool",
          "name": "",
          "type": "bool"
        }
      ],
      "stateMutability": "view",
      "type": "function"
    },
    {
      "inputs": [
        {
          "internalType": "address",
          "name": "_patient",
          "type": "address"
        }
      ],
      "name": "getPatientData",
      "outputs": [
        {
          "components": [
            {
              "internalType": "string",
              "name": "name",
              "type": "string"
            },
            {
              "internalType": "enum Enum.BloodType",
              "name": "bloodType",
              "type": "uint8"
            },
            {
              "internalType": "uint256",
              "name": "lastUpdated",
              "type": "uint256"
            }
          ],
          "internalType": "struct MedicalDatabase.Patient",
          "name": "",
          "type": "tuple"
        }
      ],
      "stateMutability": "view",
      "type": "function"
    },
    {
      "inputs": [
        {
          "internalType": "bytes32",
          "name": "role",
          "type": "bytes32"
        }
      ],
      "name": "getRoleAdmin",
      "outputs": [
        {
          "internalType": "bytes32",
          "name": "",
          "type": "bytes32"
        }
      ],
      "stateMutability": "view",
      "type": "function"
    },
    {
      "inputs": [
        {
          "internalType": "bytes32",
          "name": "role",
          "type": "bytes32"
        },
        {
          "internalType": "address",
          "name": "account",
          "type": "address"
        }
      ],
      "name": "grantRole",
      "outputs": [],
      "stateMutability": "nonpayable",
      "type": "function"
    },
    {
      "inputs": [
        {
          "internalType": "bytes32",
          "name": "role",
          "type": "bytes32"
        },
        {
          "internalType": "address",
          "name": "account",
          "type": "address"
        }
      ],
      "name": "hasRole",
      "outputs": [
        {
          "internalType": "bool",
          "name": "",
          "type": "bool"
        }
      ],
      "stateMutability": "view",
      "type": "function"
    },
    {
      "inputs": [
        {
          "internalType": "address",
          "name": "_patient",
          "type": "address"
        },
        {
          "internalType": "address",
          "name": "_viewer",
          "type": "address"
        }
      ],
      "name": "isApproved",
      "outputs": [
        {
          "internalType": "bool",
          "name": "",
          "type": "bool"
        }
      ],
      "stateMutability": "view",
      "type": "function"
    },
    {
      "inputs": [
        {
          "internalType": "address",
          "name": "_doctor",
          "type": "address"
        }
      ],
      "name": "isDoctor",
      "outputs": [
        {
          "internalType": "bool",
          "name": "",
          "type": "bool"
        }
      ],
      "stateMutability": "view",
      "type": "function"
    },
    {
      "inputs": [
        {
          "internalType": "address",
          "name": "_to",
          "type": "address"
        }
      ],
      "name": "pay",
      "outputs": [],
      "stateMutability": "payable",
      "type": "function"
    },
    {
      "inputs": [
        {
          "internalType": "address",
          "name": "_doctor",
          "type": "address"
        }
      ],
      "name": "registerDoctor",
      "outputs": [],
      "stateMutability": "nonpayable",
      "type": "function"
    },
    {
      "inputs": [
        {
          "internalType": "address",
          "name": "_patient",
          "type": "address"
        },
        {
          "internalType": "string",
          "name": "_name",
          "type": "string"
        },
        {
          "internalType": "enum Enum.BloodType",
          "name": "_bloodType",
          "type": "uint8"
        }
      ],
      "name": "registerPatient",
      "outputs": [],
      "stateMutability": "nonpayable",
      "type": "function"
    },
    {
      "inputs": [
        {
          "internalType": "address",
          "name": "_doctor",
          "type": "address"
        }
      ],
      "name": "removeDoctor",
      "outputs": [],
      "stateMutability": "nonpayable",
      "type": "function"
    },
    {
      "inputs": [
        {
          "internalType": "bytes32",
          "name": "role",
          "type": "bytes32"
        },
        {
          "internalType": "address",
          "name": "account",
          "type": "address"
        }
      ],
      "name": "renounceRole",
      "outputs": [],
      "stateMutability": "nonpayable",
      "type": "function"
    },
    {
      "inputs": [
        {
          "internalType": "bytes32",
          "name": "role",
          "type": "bytes32"
        },
        {
          "internalType": "address",
          "name": "account",
          "type": "address"
        }
      ],
      "name": "revokeRole",
      "outputs": [],
      "stateMutability": "nonpayable",
      "type": "function"
    },
    {
      "inputs": [
        {
          "internalType": "bytes4",
          "name": "interfaceId",
          "type": "bytes4"
        }
      ],
      "name": "supportsInterface",
      "outputs": [
        {
          "internalType": "bool",
          "name": "",
          "type": "bool"
        }
      ],
      "stateMutability": "view",
      "type": "function"
    },
    {
      "inputs": [
        {
          "internalType": "address",
          "name": "_patient",
          "type": "address"
        },
        {
          "internalType": "string",
          "name": "_name",
          "type": "string"
        },
        {
          "internalType": "enum Enum.BloodType",
          "name": "_bloodType",
          "type": "uint8"
        }
      ],
      "name": "updatePatient",
      "outputs": [],
      "stateMutability": "nonpayable",
      "type": "function"
    }
  ],
  "bytecode": {
    "object": "0x608060405234801561001057600080fd5b506115e6806100206000396000f3fe6080604052600436106101095760003560e01c806398fc90e911610095578063c79c7b1611610064578063c79c7b16146102d8578063d547741f146102f8578063d649937614610318578063e1c0161814610338578063fa8583741461035857600080fd5b806398fc90e914610263578063996440c614610283578063a217fddf146102a3578063a389783e146102b857600080fd5b806336568abe116100dc57806336568abe146101b65780633dddc9ea146101d657806348e81852146101f6578063699ca9981461022357806391d148541461024357600080fd5b806301ffc9a71461010e5780630c11dedd14610143578063248a9ca3146101585780632f2ff15d14610196575b600080fd5b34801561011a57600080fd5b5061012e610129366004610fe2565b610378565b60405190151581526020015b60405180910390f35b610156610151366004611028565b6103af565b005b34801561016457600080fd5b50610188610173366004611043565b60009081526020819052604090206001015490565b60405190815260200161013a565b3480156101a257600080fd5b506101566101b136600461105c565b61042b565b3480156101c257600080fd5b506101566101d136600461105c565b610455565b3480156101e257600080fd5b5061012e6101f1366004611028565b6104d8565b34801561020257600080fd5b50610216610211366004611028565b6104e4565b60405161013a919061111c565b34801561022f57600080fd5b5061015661023e366004611028565b6106c2565b34801561024f57600080fd5b5061012e61025e36600461105c565b61073d565b34801561026f57600080fd5b5061015661027e366004611028565b610766565b34801561028f57600080fd5b5061012e61029e366004611028565b6107f2565b3480156102af57600080fd5b50610188600081565b3480156102c457600080fd5b5061012e6102d3366004611161565b6107fe565b3480156102e457600080fd5b506101566102f33660046111b0565b610821565b34801561030457600080fd5b5061015661031336600461105c565b6109ec565b34801561032457600080fd5b506101566103333660046111b0565b610a11565b34801561034457600080fd5b50610156610353366004611161565b610b9d565b34801561036457600080fd5b50610156610373366004611161565b610c26565b60006001600160e01b03198216637965db0b60e01b14806103a957506301ffc9a760e01b6001600160e01b03198316145b92915050565b6040516001600160a01b038216903480156108fc02916000818181858888f193505050501580156103e4573d6000803e3d6000fd5b50604080516001600160a01b038316815234602082015233917f9def4e2802183d68ce90a6a226a2962b59298616c27165f12c4fbc5c84cdd778910160405180910390a250565b60008281526020819052604090206001015461044681610ca5565b6104508383610cb2565b505050565b6001600160a01b03811633146104ca5760405162461bcd60e51b815260206004820152602f60248201527f416363657373436f6e74726f6c3a2063616e206f6e6c792072656e6f756e636560448201526e103937b632b9903337b91039b2b63360891b60648201526084015b60405180910390fd5b6104d48282610d36565b5050565b60006103a982336107fe565b60408051606080820183528152600060208083018290528284018290526001600160a01b038516825260019052919091206002015482906105605760405162461bcd60e51b81526020600482015260166024820152751c185d1a595b9d08191bd95cc81b9bdd08195e1a5cdd60521b60448201526064016104c1565b823361056c8282610d9b565b6105c75760405162461bcd60e51b815260206004820152602660248201527f6973206e6f7420616e20617574686f72697a6564207573657220746f2076696560448201526577206461746160d01b60648201526084016104c1565b6001600160a01b038516600090815260016020526040908190208151606081019092528054829082906105f990611282565b80601f016020809104026020016040519081016040528092919081815260200182805461062590611282565b80156106725780601f1061064757610100808354040283529160200191610672565b820191906000526020600020905b81548152906001019060200180831161065557829003601f168201915b5050509183525050600182015460209091019060ff166004811115610699576106996110e4565b60048111156106aa576106aa6110e4565b81526020016002820154815250509350505050919050565b80336001600160a01b038216146106eb5760405162461bcd60e51b81526004016104c1906112bc565b6106f6600083610cb2565b816001600160a01b03167fa10a7d4aed281c75833a79b4257a8fcc8c0cf12cdfa1c276fa6f849a53c60fb94260405161073191815260200190565b60405180910390a25050565b6000918252602082815260408084206001600160a01b0393909316845291905290205460ff1690565b33610770816107f2565b6107ac5760405162461bcd60e51b815260206004820152600d60248201526c34b9903737ba103237b1ba37b960991b60448201526064016104c1565b6107b7600083610d36565b816001600160a01b03167fa71431043205949af83c925167531f16cee0dd1ccbb22460126afb0e7c12c15e4260405161073191815260200190565b60006103a9818361073d565b60006001600160601b0319606084901b16610819818461073d565b949350505050565b82610846816001600160a01b0316600090815260016020526040902060020154151590565b61088b5760405162461bcd60e51b81526020600482015260166024820152751c185d1a595b9d08191bd95cc81b9bdd08195e1a5cdd60521b60448201526064016104c1565b33610895816107f2565b6108d15760405162461bcd60e51b815260206004820152600d60248201526c34b9903737ba103237b1ba37b960991b60448201526064016104c1565b84336108dd82826107fe565b6109295760405162461bcd60e51b815260206004820181905260248201527f6973206e6f7420617070726f76656420746f207669657720746865206461746160448201526064016104c1565b6001600160a01b03871660009081526001602052604090208061094c8882611341565b5060018082018054889260ff199091169083600481111561096f5761096f6110e4565b0217905550426002820155604051610988908290611401565b6040519081900381206001830154600284015491926001600160a01b038c16927f10c994c3af15bd839be7f5fa94479449107c300465b697e0f0f5207288faba4f926109da9260ff9091169190611477565b60405180910390a35050505050505050565b600082815260208190526040902060010154610a0781610ca5565b6104508383610d36565b82336001600160a01b03821614610a3a5760405162461bcd60e51b81526004016104c1906112bc565b6001600160a01b03841660009081526001602052604090206002015415610aa35760405162461bcd60e51b815260206004820152601d60248201527f70617469656e7420697320616c7265616479207265676973746572656400000060448201526064016104c1565b60006040518060600160405280858152602001846004811115610ac857610ac86110e4565b8152426020918201526001600160a01b0387166000908152600190915260409020815191925082918190610afc9082611341565b50602082015160018083018054909160ff1990911690836004811115610b2457610b246110e4565b021790555060409182015160029091015581519051610b439190611492565b6040518091039020856001600160a01b03167fd852f2c27b2ba49c49adc1d0162d8cf893b7271ecc1cedd07408a24f4615202383602001518460400151604051610b8e929190611477565b60405180910390a35050505050565b81336001600160a01b03821614610bc65760405162461bcd60e51b81526004016104c1906112bc565b6001600160601b0319606084901b16610bdf8184610cb2565b6040516001600160a01b0384811682528516907f9bede35f85ff0426cf3132bd3e6b809a22d111fd28c72b4b601b8322a36c62a4906020015b60405180910390a250505050565b81336001600160a01b03821614610c4f5760405162461bcd60e51b81526004016104c1906112bc565b6001600160601b0319606084901b16610c688184610d36565b6040516001600160a01b0384811682528516907f7aaaf08c8f3f46fee1a7ea594f16e3ce786d53cf3ff2cd14e505d385eab62e7990602001610c18565b610caf8133610ddb565b50565b610cbc828261073d565b6104d4576000828152602081815260408083206001600160a01b03851684529091529020805460ff19166001179055610cf23390565b6001600160a01b0316816001600160a01b0316837f2f8788117e7eff1d82e926ec794901d17c78024a50270940304540a733656f0d60405160405180910390a45050565b610d40828261073d565b156104d4576000828152602081815260408083206001600160a01b0385168085529252808320805460ff1916905551339285917ff6391f5c32d9c69d2a47ea670b442974b53935d1edc7fd64eb21e047a839171b9190a45050565b6000816001600160a01b0316836001600160a01b03161480610dd45750610dc283836107fe565b8015610dd45750610dd460008361073d565b9392505050565b610de5828261073d565b6104d457610df281610e34565b610dfd836020610e46565b604051602001610e0e9291906114ae565b60408051601f198184030181529082905262461bcd60e51b82526104c191600401611523565b60606103a96001600160a01b03831660145b60606000610e5583600261154c565b610e6090600261156b565b67ffffffffffffffff811115610e7857610e7861118b565b6040519080825280601f01601f191660200182016040528015610ea2576020820181803683370190505b509050600360fc1b81600081518110610ebd57610ebd611583565b60200101906001600160f81b031916908160001a905350600f60fb1b81600181518110610eec57610eec611583565b60200101906001600160f81b031916908160001a9053506000610f1084600261154c565b610f1b90600161156b565b90505b6001811115610f93576f181899199a1a9b1b9c1cb0b131b232b360811b85600f1660108110610f4f57610f4f611583565b1a60f81b828281518110610f6557610f65611583565b60200101906001600160f81b031916908160001a90535060049490941c93610f8c81611599565b9050610f1e565b508315610dd45760405162461bcd60e51b815260206004820181905260248201527f537472696e67733a20686578206c656e67746820696e73756666696369656e7460448201526064016104c1565b600060208284031215610ff457600080fd5b81356001600160e01b031981168114610dd457600080fd5b80356001600160a01b038116811461102357600080fd5b919050565b60006020828403121561103a57600080fd5b610dd48261100c565b60006020828403121561105557600080fd5b5035919050565b6000806040838503121561106f57600080fd5b8235915061107f6020840161100c565b90509250929050565b60005b838110156110a357818101518382015260200161108b565b838111156110b2576000848401525b50505050565b600081518084526110d0816020860160208601611088565b601f01601f19169290920160200192915050565b634e487b7160e01b600052602160045260246000fd5b6005811061111857634e487b7160e01b600052602160045260246000fd5b9052565b60208152600082516060602084015261113860808401826110b8565b9050602084015161114c60408501826110fa565b50604084015160608401528091505092915050565b6000806040838503121561117457600080fd5b61117d8361100c565b915061107f6020840161100c565b634e487b7160e01b600052604160045260246000fd5b80356005811061102357600080fd5b6000806000606084860312156111c557600080fd5b6111ce8461100c565b9250602084013567ffffffffffffffff808211156111eb57600080fd5b818601915086601f8301126111ff57600080fd5b8135818111156112115761121161118b565b604051601f8201601f19908116603f011681019083821181831017156112395761123961118b565b8160405282815289602084870101111561125257600080fd5b826020860160208301376000602084830101528096505050505050611279604085016111a1565b90509250925092565b600181811c9082168061129657607f821691505b6020821081036112b657634e487b7160e01b600052602260045260246000fd5b50919050565b6020808252601f908201527f7468652061646472657373206973206e6f74207468652073656e646572277300604082015260600190565b601f82111561045057600081815260208120601f850160051c8101602086101561131a5750805b601f850160051c820191505b8181101561133957828155600101611326565b505050505050565b815167ffffffffffffffff81111561135b5761135b61118b565b61136f816113698454611282565b846112f3565b602080601f8311600181146113a4576000841561138c5750858301515b600019600386901b1c1916600185901b178555611339565b600085815260208120601f198616915b828110156113d3578886015182559484019460019091019084016113b4565b50858210156113f15787850151600019600388901b60f8161c191681555b5050505050600190811b01905550565b600080835461140f81611282565b60018281168015611427576001811461143c5761146b565b60ff198416875282151583028701945061146b565b8760005260208060002060005b858110156114625781548a820152908401908201611449565b50505082870194505b50929695505050505050565b6040810161148582856110fa565b8260208301529392505050565b600082516114a4818460208701611088565b9190910192915050565b7f416363657373436f6e74726f6c3a206163636f756e74200000000000000000008152600083516114e6816017850160208801611088565b7001034b99036b4b9b9b4b733903937b6329607d1b6017918401918201528351611517816028840160208801611088565b01602801949350505050565b602081526000610dd460208301846110b8565b634e487b7160e01b600052601160045260246000fd5b600081600019048311821515161561156657611566611536565b500290565b6000821982111561157e5761157e611536565b500190565b634e487b7160e01b600052603260045260246000fd5b6000816115a8576115a8611536565b50600019019056fea264697066735822122050a9e5aa12ed6ce97579c9e3354f408adddd06fb9ce89781b4ea8eca87eb7bc564736f6c634300080f0033",
    "linkReferences": {}
  },
  "methodIdentifiers": {
    "DEFAULT_ADMIN_ROLE()": "a217fddf",
    "approveViewData(address,address)": "e1c01618",
    "disapproveViewData(address,address)": "fa858374",
    "getApproved(address)": "3dddc9ea",
    "getPatientData(address)": "48e81852",
    "getRoleAdmin(bytes32)": "248a9ca3",
    "grantRole(bytes32,address)": "2f2ff15d",
    "hasRole(bytes32,address)": "91d14854",
    "isApproved(address,address)": "a389783e",
    "isDoctor(address)": "996440c6",
    "pay(address)": "0c11dedd",
    "registerDoctor(address)": "699ca998",
    "registerPatient(address,string,uint8)": "d6499376",
    "removeDoctor(address)": "98fc90e9",
    "renounceRole(bytes32,address)": "36568abe",
    "revokeRole(bytes32,address)": "d547741f",
    "supportsInterface(bytes4)": "01ffc9a7",
    "updatePatient(address,string,uint8)": "c79c7b16"
  },
  "id": 26
}